{
  "_format": "hh-sol-artifact-1",
  "contractName": "PaymentContract",
  "sourceName": "contracts/PaymentContract.sol",
  "abi": [
    {
      "anonymous": false,
      "inputs": [
        {
          "indexed": false,
          "internalType": "uint256",
          "name": "paymentId",
          "type": "uint256"
        },
        {
          "indexed": false,
          "internalType": "address",
          "name": "payee",
          "type": "address"
        }
      ],
      "name": "PaymentConfirmed",
      "type": "event"
    },
    {
      "anonymous": false,
      "inputs": [
        {
          "indexed": false,
          "internalType": "uint256",
          "name": "paymentId",
          "type": "uint256"
        },
        {
          "indexed": false,
          "internalType": "address",
          "name": "payer",
          "type": "address"
        },
        {
          "indexed": false,
          "internalType": "address",
          "name": "payee",
          "type": "address"
        },
        {
          "indexed": false,
          "internalType": "uint256",
          "name": "amount",
          "type": "uint256"
        }
      ],
      "name": "PaymentInitiated",
      "type": "event"
    },
    {
      "inputs": [
        {
          "internalType": "uint256",
          "name": "paymentId",
          "type": "uint256"
        }
      ],
      "name": "confirmPayment",
      "outputs": [],
      "stateMutability": "nonpayable",
      "type": "function"
    },
    {
      "inputs": [
        {
          "internalType": "uint256",
          "name": "paymentId",
          "type": "uint256"
        }
      ],
      "name": "getPayment",
      "outputs": [
        {
          "components": [
            {
              "internalType": "uint256",
              "name": "paymentId",
              "type": "uint256"
            },
            {
              "internalType": "address",
              "name": "payer",
              "type": "address"
            },
            {
              "internalType": "address",
              "name": "payee",
              "type": "address"
            },
            {
              "internalType": "uint256",
              "name": "amount",
              "type": "uint256"
            },
            {
              "internalType": "bool",
              "name": "confirmed",
              "type": "bool"
            },
            {
              "internalType": "uint256",
              "name": "paymentTimestamp",
              "type": "uint256"
            },
            {
              "internalType": "uint256",
              "name": "confirmationTimestamp",
              "type": "uint256"
            }
          ],
          "internalType": "struct PaymentContract.Payment",
          "name": "",
          "type": "tuple"
        }
      ],
      "stateMutability": "view",
      "type": "function"
    },
    {
      "inputs": [
        {
          "internalType": "address",
          "name": "payee",
          "type": "address"
        },
        {
          "internalType": "uint256",
          "name": "amount",
          "type": "uint256"
        }
      ],
      "name": "initiatePayment",
      "outputs": [
        {
          "internalType": "uint256",
          "name": "",
          "type": "uint256"
        }
      ],
      "stateMutability": "payable",
      "type": "function"
    },
    {
      "inputs": [
        {
          "internalType": "uint256",
          "name": "",
          "type": "uint256"
        }
      ],
      "name": "payments",
      "outputs": [
        {
          "internalType": "uint256",
          "name": "paymentId",
          "type": "uint256"
        },
        {
          "internalType": "address",
          "name": "payer",
          "type": "address"
        },
        {
          "internalType": "address",
          "name": "payee",
          "type": "address"
        },
        {
          "internalType": "uint256",
          "name": "amount",
          "type": "uint256"
        },
        {
          "internalType": "bool",
          "name": "confirmed",
          "type": "bool"
        },
        {
          "internalType": "uint256",
          "name": "paymentTimestamp",
          "type": "uint256"
        },
        {
          "internalType": "uint256",
          "name": "confirmationTimestamp",
          "type": "uint256"
        }
      ],
      "stateMutability": "view",
      "type": "function"
    },
    {
      "inputs": [
        {
          "internalType": "address",
          "name": "",
          "type": "address"
        },
        {
          "internalType": "uint256",
          "name": "",
          "type": "uint256"
        }
      ],
      "name": "paymentsByPayee",
      "outputs": [
        {
          "internalType": "uint256",
          "name": "",
          "type": "uint256"
        }
      ],
      "stateMutability": "view",
      "type": "function"
    },
    {
      "inputs": [
        {
          "internalType": "address",
          "name": "",
          "type": "address"
        },
        {
          "internalType": "uint256",
          "name": "",
          "type": "uint256"
        }
      ],
      "name": "paymentsByPayer",
      "outputs": [
        {
          "internalType": "uint256",
          "name": "",
          "type": "uint256"
        }
      ],
      "stateMutability": "view",
      "type": "function"
    }
  ],
  "bytecode": "0x6080604052600160005534801561001557600080fd5b50610d9e806100256000396000f3fe6080604052600436106100555760003560e01c80633070a3c41461005a5780633280a83614610097578063876ca09f146100d457806387d81789146100fd578063884d906114610140578063ecbc5fb814610170575b600080fd5b34801561006657600080fd5b50610081600480360381019061007c91906108dc565b6101ad565b60405161008e919061092b565b60405180910390f35b3480156100a357600080fd5b506100be60048036038101906100b99190610946565b6101de565b6040516100cb9190610a3a565b60405180910390f35b3480156100e057600080fd5b506100fb60048036038101906100f69190610946565b6102fa565b005b34801561010957600080fd5b50610124600480360381019061011f9190610946565b610458565b6040516101379796959493929190610a73565b60405180910390f35b61015a600480360381019061015591906108dc565b6104e7565b604051610167919061092b565b60405180910390f35b34801561017c57600080fd5b50610197600480360381019061019291906108dc565b6107a7565b6040516101a4919061092b565b60405180910390f35b600360205281600052604060002081815481106101c957600080fd5b90600052602060002001600091509150505481565b6101e66107d8565b600160008381526020019081526020016000206040518060e0016040529081600082015481526020016001820160009054906101000a900473ffffffffffffffffffffffffffffffffffffffff1673ffffffffffffffffffffffffffffffffffffffff1673ffffffffffffffffffffffffffffffffffffffff1681526020016002820160009054906101000a900473ffffffffffffffffffffffffffffffffffffffff1673ffffffffffffffffffffffffffffffffffffffff1673ffffffffffffffffffffffffffffffffffffffff168152602001600382015481526020016004820160009054906101000a900460ff16151515158152602001600582015481526020016006820154815250509050919050565b60006001600083815260200190815260200160002090508060020160009054906101000a900473ffffffffffffffffffffffffffffffffffffffff1673ffffffffffffffffffffffffffffffffffffffff163373ffffffffffffffffffffffffffffffffffffffff16146103a3576040517f08c379a000000000000000000000000000000000000000000000000000000000815260040161039a90610b65565b60405180910390fd5b8060040160009054906101000a900460ff16156103f5576040517f08c379a00000000000000000000000000000000000000000000000000000000081526004016103ec90610bd1565b60405180910390fd5b60018160040160006101000a81548160ff0219169083151502179055504281600601819055507f2bce41b08631cf63c2dfd0b519d88a1e3db7e906ba6f0234f853996915e09028823360405161044c929190610bf1565b60405180910390a15050565b60016020528060005260406000206000915090508060000154908060010160009054906101000a900473ffffffffffffffffffffffffffffffffffffffff16908060020160009054906101000a900473ffffffffffffffffffffffffffffffffffffffff16908060030154908060040160009054906101000a900460ff16908060050154908060060154905087565b600081341461052b576040517f08c379a000000000000000000000000000000000000000000000000000000000815260040161052290610c8c565b60405180910390fd5b600080600081548092919061053f90610cdb565b9190505590506040518060e001604052808281526020013373ffffffffffffffffffffffffffffffffffffffff1681526020018573ffffffffffffffffffffffffffffffffffffffff1681526020018481526020016000151581526020014281526020016000815250600160008381526020019081526020016000206000820151816000015560208201518160010160006101000a81548173ffffffffffffffffffffffffffffffffffffffff021916908373ffffffffffffffffffffffffffffffffffffffff16021790555060408201518160020160006101000a81548173ffffffffffffffffffffffffffffffffffffffff021916908373ffffffffffffffffffffffffffffffffffffffff1602179055506060820151816003015560808201518160040160006101000a81548160ff02191690831515021790555060a0820151816005015560c08201518160060155905050600260003373ffffffffffffffffffffffffffffffffffffffff1673ffffffffffffffffffffffffffffffffffffffff168152602001908152602001600020819080600181540180825580915050600190039060005260206000200160009091909190915055600360008573ffffffffffffffffffffffffffffffffffffffff1673ffffffffffffffffffffffffffffffffffffffff1681526020019081526020016000208190806001815401808255809150506001900390600052602060002001600090919091909150557fe064501ff0c8345e3c252ac92add47e0e28225460e48f354750dfda9d72df751813386866040516107959493929190610d23565b60405180910390a18091505092915050565b600260205281600052604060002081815481106107c357600080fd5b90600052602060002001600091509150505481565b6040518060e0016040528060008152602001600073ffffffffffffffffffffffffffffffffffffffff168152602001600073ffffffffffffffffffffffffffffffffffffffff1681526020016000815260200160001515815260200160008152602001600081525090565b600080fd5b600073ffffffffffffffffffffffffffffffffffffffff82169050919050565b600061087382610848565b9050919050565b61088381610868565b811461088e57600080fd5b50565b6000813590506108a08161087a565b92915050565b6000819050919050565b6108b9816108a6565b81146108c457600080fd5b50565b6000813590506108d6816108b0565b92915050565b600080604083850312156108f3576108f2610843565b5b600061090185828601610891565b9250506020610912858286016108c7565b9150509250929050565b610925816108a6565b82525050565b6000602082019050610940600083018461091c565b92915050565b60006020828403121561095c5761095b610843565b5b600061096a848285016108c7565b91505092915050565b61097c816108a6565b82525050565b61098b81610868565b82525050565b60008115159050919050565b6109a681610991565b82525050565b60e0820160008201516109c26000850182610973565b5060208201516109d56020850182610982565b5060408201516109e86040850182610982565b5060608201516109fb6060850182610973565b506080820151610a0e608085018261099d565b5060a0820151610a2160a0850182610973565b5060c0820151610a3460c0850182610973565b50505050565b600060e082019050610a4f60008301846109ac565b92915050565b610a5e81610868565b82525050565b610a6d81610991565b82525050565b600060e082019050610a88600083018a61091c565b610a956020830189610a55565b610aa26040830188610a55565b610aaf606083018761091c565b610abc6080830186610a64565b610ac960a083018561091c565b610ad660c083018461091c565b98975050505050505050565b600082825260208201905092915050565b7f4f6e6c79207468652064657369676e617465642070617965652063616e20636f60008201527f6e6669726d2074686973207061796d656e742e00000000000000000000000000602082015250565b6000610b4f603383610ae2565b9150610b5a82610af3565b604082019050919050565b60006020820190508181036000830152610b7e81610b42565b9050919050565b7f5061796d656e7420616c726561647920636f6e6669726d65642e000000000000600082015250565b6000610bbb601a83610ae2565b9150610bc682610b85565b602082019050919050565b60006020820190508181036000830152610bea81610bae565b9050919050565b6000604082019050610c06600083018561091c565b610c136020830184610a55565b9392505050565b7f5061796d656e7420616d6f756e74206d757374206d617463682074686520736560008201527f6e742076616c75652e0000000000000000000000000000000000000000000000602082015250565b6000610c76602983610ae2565b9150610c8182610c1a565b604082019050919050565b60006020820190508181036000830152610ca581610c69565b9050919050565b7f4e487b7100000000000000000000000000000000000000000000000000000000600052601160045260246000fd5b6000610ce6826108a6565b91507fffffffffffffffffffffffffffffffffffffffffffffffffffffffffffffffff8203610d1857610d17610cac565b5b600182019050919050565b6000608082019050610d38600083018761091c565b610d456020830186610a55565b610d526040830185610a55565b610d5f606083018461091c565b9594505050505056fea26469706673582212207462a23438ecb570538b0ad3473fc148a8400d42f29b9296508cac82b1d56d5b64736f6c63430008180033",
  "linkReferences": {},
  "deployedLinkReferences": {}
}