{
  "_format": "hh-sol-artifact-1",
  "contractName": "EnhancedInvoiceContract",
  "sourceName": "contracts/InvoiceContracts.sol",
  "abi": [
    {
      "anonymous": false,
      "inputs": [
        {
          "indexed": true,
          "internalType": "uint256",
          "name": "invoiceId",
          "type": "uint256"
        },
        {
          "indexed": true,
          "internalType": "address",
          "name": "buyer",
          "type": "address"
        }
      ],
      "name": "InvoiceApproved",
      "type": "event"
    },
    {
      "anonymous": false,
      "inputs": [
        {
          "indexed": true,
          "internalType": "uint256",
          "name": "invoiceId",
          "type": "uint256"
        },
        {
          "indexed": true,
          "internalType": "address",
          "name": "supplier",
          "type": "address"
        },
        {
          "indexed": true,
          "internalType": "address",
          "name": "buyer",
          "type": "address"
        },
        {
          "indexed": false,
          "internalType": "uint256",
          "name": "amount",
          "type": "uint256"
        }
      ],
      "name": "InvoiceCreated",
      "type": "event"
    },
    {
      "anonymous": false,
      "inputs": [
        {
          "indexed": true,
          "internalType": "uint256",
          "name": "invoiceId",
          "type": "uint256"
        },
        {
          "indexed": true,
          "internalType": "address",
          "name": "buyer",
          "type": "address"
        },
        {
          "indexed": false,
          "internalType": "uint256",
          "name": "amount",
          "type": "uint256"
        }
      ],
      "name": "InvoicePaid",
      "type": "event"
    },
    {
      "inputs": [
        {
          "internalType": "uint256",
          "name": "_invoiceId",
          "type": "uint256"
        }
      ],
      "name": "approveInvoice",
      "outputs": [],
      "stateMutability": "nonpayable",
      "type": "function"
    },
    {
      "inputs": [
        {
          "internalType": "address",
          "name": "_buyer",
          "type": "address"
        },
        {
          "internalType": "uint256",
          "name": "_amount",
          "type": "uint256"
        }
      ],
      "name": "createInvoice",
      "outputs": [],
      "stateMutability": "nonpayable",
      "type": "function"
    },
    {
      "inputs": [],
      "name": "getAllInvoices",
      "outputs": [
        {
          "components": [
            {
              "internalType": "uint256",
              "name": "invoiceId",
              "type": "uint256"
            },
            {
              "internalType": "address",
              "name": "supplier",
              "type": "address"
            },
            {
              "internalType": "address",
              "name": "buyer",
              "type": "address"
            },
            {
              "internalType": "uint256",
              "name": "amount",
              "type": "uint256"
            },
            {
              "internalType": "bool",
              "name": "approved",
              "type": "bool"
            },
            {
              "internalType": "bool",
              "name": "paid",
              "type": "bool"
            },
            {
              "internalType": "uint256",
              "name": "approvalTimestamp",
              "type": "uint256"
            },
            {
              "internalType": "uint256",
              "name": "paymentTimestamp",
              "type": "uint256"
            }
          ],
          "internalType": "struct EnhancedInvoiceContract.Invoice[]",
          "name": "",
          "type": "tuple[]"
        }
      ],
      "stateMutability": "view",
      "type": "function"
    },
    {
      "inputs": [
        {
          "internalType": "uint256",
          "name": "_invoiceId",
          "type": "uint256"
        }
      ],
      "name": "getInvoice",
      "outputs": [
        {
          "components": [
            {
              "internalType": "uint256",
              "name": "invoiceId",
              "type": "uint256"
            },
            {
              "internalType": "address",
              "name": "supplier",
              "type": "address"
            },
            {
              "internalType": "address",
              "name": "buyer",
              "type": "address"
            },
            {
              "internalType": "uint256",
              "name": "amount",
              "type": "uint256"
            },
            {
              "internalType": "bool",
              "name": "approved",
              "type": "bool"
            },
            {
              "internalType": "bool",
              "name": "paid",
              "type": "bool"
            },
            {
              "internalType": "uint256",
              "name": "approvalTimestamp",
              "type": "uint256"
            },
            {
              "internalType": "uint256",
              "name": "paymentTimestamp",
              "type": "uint256"
            }
          ],
          "internalType": "struct EnhancedInvoiceContract.Invoice",
          "name": "",
          "type": "tuple"
        }
      ],
      "stateMutability": "view",
      "type": "function"
    },
    {
      "inputs": [],
      "name": "getInvoiceCount",
      "outputs": [
        {
          "internalType": "uint256",
          "name": "",
          "type": "uint256"
        }
      ],
      "stateMutability": "view",
      "type": "function"
    },
    {
      "inputs": [],
      "name": "invoiceCounter",
      "outputs": [
        {
          "internalType": "uint256",
          "name": "",
          "type": "uint256"
        }
      ],
      "stateMutability": "view",
      "type": "function"
    },
    {
      "inputs": [
        {
          "internalType": "uint256",
          "name": "",
          "type": "uint256"
        }
      ],
      "name": "invoices",
      "outputs": [
        {
          "internalType": "uint256",
          "name": "invoiceId",
          "type": "uint256"
        },
        {
          "internalType": "address",
          "name": "supplier",
          "type": "address"
        },
        {
          "internalType": "address",
          "name": "buyer",
          "type": "address"
        },
        {
          "internalType": "uint256",
          "name": "amount",
          "type": "uint256"
        },
        {
          "internalType": "bool",
          "name": "approved",
          "type": "bool"
        },
        {
          "internalType": "bool",
          "name": "paid",
          "type": "bool"
        },
        {
          "internalType": "uint256",
          "name": "approvalTimestamp",
          "type": "uint256"
        },
        {
          "internalType": "uint256",
          "name": "paymentTimestamp",
          "type": "uint256"
        }
      ],
      "stateMutability": "view",
      "type": "function"
    },
    {
      "inputs": [
        {
          "internalType": "uint256",
          "name": "_invoiceId",
          "type": "uint256"
        }
      ],
      "name": "payInvoice",
      "outputs": [],
      "stateMutability": "payable",
      "type": "function"
    }
  ],
  "bytecode": "0x60806040526000805534801561001457600080fd5b50611510806100246000396000f3fe60806040526004361061007b5760003560e01c8063a57b381c1161004e578063a57b381c14610157578063ac60a6cd14610182578063b09585321461019e578063b32413b7146101c75761007b565b80633a23cc0a146100805780634e6d1405146100bd578063570bdad6146101015780637d6a59ed1461012c575b600080fd5b34801561008c57600080fd5b506100a760048036038101906100a29190610c58565b6101f0565b6040516100b49190610d92565b60405180910390f35b3480156100c957600080fd5b506100e460048036038101906100df9190610c58565b610328565b6040516100f8989796959493929190610ddb565b60405180910390f35b34801561010d57600080fd5b506101166103ca565b6040516101239190610fab565b60405180910390f35b34801561013857600080fd5b506101416105a3565b60405161014e9190610fcd565b60405180910390f35b34801561016357600080fd5b5061016c6105ac565b6040516101799190610fcd565b60405180910390f35b61019c60048036038101906101979190610c58565b6105b2565b005b3480156101aa57600080fd5b506101c560048036038101906101c09190611014565b610810565b005b3480156101d357600080fd5b506101ee60048036038101906101e99190610c58565b610a10565b005b6101f8610ba8565b6001600083815260200190815260200160002060405180610100016040529081600082015481526020016001820160009054906101000a900473ffffffffffffffffffffffffffffffffffffffff1673ffffffffffffffffffffffffffffffffffffffff1673ffffffffffffffffffffffffffffffffffffffff1681526020016002820160009054906101000a900473ffffffffffffffffffffffffffffffffffffffff1673ffffffffffffffffffffffffffffffffffffffff1673ffffffffffffffffffffffffffffffffffffffff168152602001600382015481526020016004820160009054906101000a900460ff161515151581526020016004820160019054906101000a900460ff16151515158152602001600582015481526020016006820154815250509050919050565b60016020528060005260406000206000915090508060000154908060010160009054906101000a900473ffffffffffffffffffffffffffffffffffffffff16908060020160009054906101000a900473ffffffffffffffffffffffffffffffffffffffff16908060030154908060040160009054906101000a900460ff16908060040160019054906101000a900460ff16908060050154908060060154905088565b60606000805467ffffffffffffffff8111156103e9576103e8611054565b5b60405190808252806020026020018201604052801561042257816020015b61040f610ba8565b8152602001906001900390816104075790505b5090506000600190505b600054811161059b576001600082815260200190815260200160002060405180610100016040529081600082015481526020016001820160009054906101000a900473ffffffffffffffffffffffffffffffffffffffff1673ffffffffffffffffffffffffffffffffffffffff1673ffffffffffffffffffffffffffffffffffffffff1681526020016002820160009054906101000a900473ffffffffffffffffffffffffffffffffffffffff1673ffffffffffffffffffffffffffffffffffffffff1673ffffffffffffffffffffffffffffffffffffffff168152602001600382015481526020016004820160009054906101000a900460ff161515151581526020016004820160019054906101000a900460ff16151515158152602001600582015481526020016006820154815250508260018361056c91906110b2565b8151811061057d5761057c6110e6565b5b6020026020010181905250808061059390611115565b91505061042c565b508091505090565b60008054905090565b60005481565b6001600082815260200190815260200160002060020160009054906101000a900473ffffffffffffffffffffffffffffffffffffffff1673ffffffffffffffffffffffffffffffffffffffff163373ffffffffffffffffffffffffffffffffffffffff1614610656576040517f08c379a000000000000000000000000000000000000000000000000000000000815260040161064d906111e0565b60405180910390fd5b6001600082815260200190815260200160002060040160009054906101000a900460ff166106b9576040517f08c379a00000000000000000000000000000000000000000000000000000000081526004016106b090611272565b60405180910390fd5b6001600082815260200190815260200160002060040160019054906101000a900460ff161561071d576040517f08c379a000000000000000000000000000000000000000000000000000000000815260040161071490611304565b60405180910390fd5b60016000828152602001908152602001600020600301543414610775576040517f08c379a000000000000000000000000000000000000000000000000000000000815260040161076c90611396565b60405180910390fd5b600180600083815260200190815260200160002060040160016101000a81548160ff0219169083151502179055504260016000838152602001908152602001600020600601819055503373ffffffffffffffffffffffffffffffffffffffff16817fa6abfda59e12fa300d17e1aa76bd3233eaf23ee4feb4b02b6516ad1d60be8400346040516108059190610fcd565b60405180910390a350565b60008081548092919061082290611115565b919050555060405180610100016040528060005481526020013373ffffffffffffffffffffffffffffffffffffffff1681526020018373ffffffffffffffffffffffffffffffffffffffff16815260200182815260200160001515815260200160001515815260200160008152602001600081525060016000805481526020019081526020016000206000820151816000015560208201518160010160006101000a81548173ffffffffffffffffffffffffffffffffffffffff021916908373ffffffffffffffffffffffffffffffffffffffff16021790555060408201518160020160006101000a81548173ffffffffffffffffffffffffffffffffffffffff021916908373ffffffffffffffffffffffffffffffffffffffff1602179055506060820151816003015560808201518160040160006101000a81548160ff02191690831515021790555060a08201518160040160016101000a81548160ff02191690831515021790555060c0820151816005015560e082015181600601559050508173ffffffffffffffffffffffffffffffffffffffff163373ffffffffffffffffffffffffffffffffffffffff166000547f88721abb1d35cff296c5d462601d6bdfed57e9493f8c361d2bcc24241a2ebfec84604051610a049190610fcd565b60405180910390a45050565b6001600082815260200190815260200160002060020160009054906101000a900473ffffffffffffffffffffffffffffffffffffffff1673ffffffffffffffffffffffffffffffffffffffff163373ffffffffffffffffffffffffffffffffffffffff1614610ab4576040517f08c379a0000000000000000000000000000000000000000000000000000000008152600401610aab90611428565b60405180910390fd5b6001600082815260200190815260200160002060040160009054906101000a900460ff1615610b18576040517f08c379a0000000000000000000000000000000000000000000000000000000008152600401610b0f906114ba565b60405180910390fd5b600180600083815260200190815260200160002060040160006101000a81548160ff0219169083151502179055504260016000838152602001908152602001600020600501819055503373ffffffffffffffffffffffffffffffffffffffff16817f2fc87ce78bc5c521de67a761a660a66e0731eae19ef9de3e05a46b25f0d4514760405160405180910390a350565b60405180610100016040528060008152602001600073ffffffffffffffffffffffffffffffffffffffff168152602001600073ffffffffffffffffffffffffffffffffffffffff1681526020016000815260200160001515815260200160001515815260200160008152602001600081525090565b600080fd5b6000819050919050565b610c3581610c22565b8114610c4057600080fd5b50565b600081359050610c5281610c2c565b92915050565b600060208284031215610c6e57610c6d610c1d565b5b6000610c7c84828501610c43565b91505092915050565b610c8e81610c22565b82525050565b600073ffffffffffffffffffffffffffffffffffffffff82169050919050565b6000610cbf82610c94565b9050919050565b610ccf81610cb4565b82525050565b60008115159050919050565b610cea81610cd5565b82525050565b61010082016000820151610d076000850182610c85565b506020820151610d1a6020850182610cc6565b506040820151610d2d6040850182610cc6565b506060820151610d406060850182610c85565b506080820151610d536080850182610ce1565b5060a0820151610d6660a0850182610ce1565b5060c0820151610d7960c0850182610c85565b5060e0820151610d8c60e0850182610c85565b50505050565b600061010082019050610da86000830184610cf0565b92915050565b610db781610c22565b82525050565b610dc681610cb4565b82525050565b610dd581610cd5565b82525050565b600061010082019050610df1600083018b610dae565b610dfe602083018a610dbd565b610e0b6040830189610dbd565b610e186060830188610dae565b610e256080830187610dcc565b610e3260a0830186610dcc565b610e3f60c0830185610dae565b610e4c60e0830184610dae565b9998505050505050505050565b600081519050919050565b600082825260208201905092915050565b6000819050602082019050919050565b61010082016000820151610e9c6000850182610c85565b506020820151610eaf6020850182610cc6565b506040820151610ec26040850182610cc6565b506060820151610ed56060850182610c85565b506080820151610ee86080850182610ce1565b5060a0820151610efb60a0850182610ce1565b5060c0820151610f0e60c0850182610c85565b5060e0820151610f2160e0850182610c85565b50505050565b6000610f338383610e85565b6101008301905092915050565b6000602082019050919050565b6000610f5882610e59565b610f628185610e64565b9350610f6d83610e75565b8060005b83811015610f9e578151610f858882610f27565b9750610f9083610f40565b925050600181019050610f71565b5085935050505092915050565b60006020820190508181036000830152610fc58184610f4d565b905092915050565b6000602082019050610fe26000830184610dae565b92915050565b610ff181610cb4565b8114610ffc57600080fd5b50565b60008135905061100e81610fe8565b92915050565b6000806040838503121561102b5761102a610c1d565b5b600061103985828601610fff565b925050602061104a85828601610c43565b9150509250929050565b7f4e487b7100000000000000000000000000000000000000000000000000000000600052604160045260246000fd5b7f4e487b7100000000000000000000000000000000000000000000000000000000600052601160045260246000fd5b60006110bd82610c22565b91506110c883610c22565b92508282039050818111156110e0576110df611083565b5b92915050565b7f4e487b7100000000000000000000000000000000000000000000000000000000600052603260045260246000fd5b600061112082610c22565b91507fffffffffffffffffffffffffffffffffffffffffffffffffffffffffffffffff820361115257611151611083565b5b600182019050919050565b600082825260208201905092915050565b7f4f6e6c79207468652064657369676e617465642062757965722063616e20706160008201527f79207468697320696e766f6963652e0000000000000000000000000000000000602082015250565b60006111ca602f8361115d565b91506111d58261116e565b604082019050919050565b600060208201905081810360008301526111f9816111bd565b9050919050565b7f496e766f696365206d75737420626520617070726f766564206265666f72652060008201527f7061796d656e742e000000000000000000000000000000000000000000000000602082015250565b600061125c60288361115d565b915061126782611200565b604082019050919050565b6000602082019050818103600083015261128b8161124f565b9050919050565b7f5468697320696e766f6963652068617320616c7265616479206265656e20706160008201527f69642e0000000000000000000000000000000000000000000000000000000000602082015250565b60006112ee60238361115d565b91506112f982611292565b604082019050919050565b6000602082019050818103600083015261131d816112e1565b9050919050565b7f5061796d656e7420616d6f756e74206d757374206d617463682074686520696e60008201527f766f6963652e0000000000000000000000000000000000000000000000000000602082015250565b600061138060268361115d565b915061138b82611324565b604082019050919050565b600060208201905081810360008301526113af81611373565b9050919050565b7f4f6e6c79207468652064657369676e617465642062757965722063616e20617060008201527f70726f7665207468697320696e766f6963652e00000000000000000000000000602082015250565b600061141260338361115d565b915061141d826113b6565b604082019050919050565b6000602082019050818103600083015261144181611405565b9050919050565b7f5468697320696e766f6963652068617320616c7265616479206265656e20617060008201527f70726f7665642e00000000000000000000000000000000000000000000000000602082015250565b60006114a460278361115d565b91506114af82611448565b604082019050919050565b600060208201905081810360008301526114d381611497565b905091905056fea26469706673582212205858e0b0272e07733c81daea819f85f5ad80f37c6def204fb6d5793584524e4264736f6c63430008180033",
  "linkReferences": {},
  "deployedLinkReferences": {}
}