{
  "_format": "hh-sol-artifact-1",
  "contractName": "EnhancedInvoiceContract",
  "sourceName": "contracts/InvoiceContracts.sol",
  "abi": [
    {
      "anonymous": false,
      "inputs": [
        {
          "indexed": true,
          "internalType": "uint256",
          "name": "invoiceId",
          "type": "uint256"
        },
        {
          "indexed": true,
          "internalType": "address",
          "name": "buyer",
          "type": "address"
        }
      ],
      "name": "InvoiceApproved",
      "type": "event"
    },
    {
      "anonymous": false,
      "inputs": [
        {
          "indexed": true,
          "internalType": "uint256",
          "name": "invoiceId",
          "type": "uint256"
        },
        {
          "indexed": true,
          "internalType": "address",
          "name": "supplier",
          "type": "address"
        },
        {
          "indexed": true,
          "internalType": "address",
          "name": "buyer",
          "type": "address"
        },
        {
          "indexed": false,
          "internalType": "uint256",
          "name": "amount",
          "type": "uint256"
        }
      ],
      "name": "InvoiceCreated",
      "type": "event"
    },
    {
      "anonymous": false,
      "inputs": [
        {
          "indexed": true,
          "internalType": "uint256",
          "name": "invoiceId",
          "type": "uint256"
        },
        {
          "indexed": true,
          "internalType": "address",
          "name": "buyer",
          "type": "address"
        },
        {
          "indexed": false,
          "internalType": "uint256",
          "name": "amount",
          "type": "uint256"
        }
      ],
      "name": "InvoicePaid",
      "type": "event"
    },
    {
      "inputs": [
        {
          "internalType": "uint256",
          "name": "_invoiceId",
          "type": "uint256"
        }
      ],
      "name": "approveInvoice",
      "outputs": [],
      "stateMutability": "nonpayable",
      "type": "function"
    },
    {
      "inputs": [
        {
          "internalType": "address",
          "name": "_buyer",
          "type": "address"
        },
        {
          "internalType": "uint256",
          "name": "_amount",
          "type": "uint256"
        }
      ],
      "name": "createInvoice",
      "outputs": [],
      "stateMutability": "nonpayable",
      "type": "function"
    },
    {
      "inputs": [],
      "name": "getAllInvoices",
      "outputs": [
        {
          "components": [
            {
              "internalType": "uint256",
              "name": "invoiceId",
              "type": "uint256"
            },
            {
              "internalType": "address",
              "name": "supplier",
              "type": "address"
            },
            {
              "internalType": "address",
              "name": "buyer",
              "type": "address"
            },
            {
              "internalType": "uint256",
              "name": "amount",
              "type": "uint256"
            },
            {
              "internalType": "bool",
              "name": "approved",
              "type": "bool"
            },
            {
              "internalType": "bool",
              "name": "paid",
              "type": "bool"
            },
            {
              "internalType": "uint256",
              "name": "approvalTimestamp",
              "type": "uint256"
            },
            {
              "internalType": "uint256",
              "name": "paymentTimestamp",
              "type": "uint256"
            }
          ],
          "internalType": "struct EnhancedInvoiceContract.Invoice[]",
          "name": "",
          "type": "tuple[]"
        }
      ],
      "stateMutability": "view",
      "type": "function"
    },
    {
      "inputs": [
        {
          "internalType": "uint256",
          "name": "_invoiceId",
          "type": "uint256"
        }
      ],
      "name": "getInvoice",
      "outputs": [
        {
          "components": [
            {
              "internalType": "uint256",
              "name": "invoiceId",
              "type": "uint256"
            },
            {
              "internalType": "address",
              "name": "supplier",
              "type": "address"
            },
            {
              "internalType": "address",
              "name": "buyer",
              "type": "address"
            },
            {
              "internalType": "uint256",
              "name": "amount",
              "type": "uint256"
            },
            {
              "internalType": "bool",
              "name": "approved",
              "type": "bool"
            },
            {
              "internalType": "bool",
              "name": "paid",
              "type": "bool"
            },
            {
              "internalType": "uint256",
              "name": "approvalTimestamp",
              "type": "uint256"
            },
            {
              "internalType": "uint256",
              "name": "paymentTimestamp",
              "type": "uint256"
            }
          ],
          "internalType": "struct EnhancedInvoiceContract.Invoice",
          "name": "",
          "type": "tuple"
        }
      ],
      "stateMutability": "view",
      "type": "function"
    },
    {
      "inputs": [],
      "name": "getInvoiceCount",
      "outputs": [
        {
          "internalType": "uint256",
          "name": "",
          "type": "uint256"
        }
      ],
      "stateMutability": "view",
      "type": "function"
    },
    {
      "inputs": [],
      "name": "invoiceCounter",
      "outputs": [
        {
          "internalType": "uint256",
          "name": "",
          "type": "uint256"
        }
      ],
      "stateMutability": "view",
      "type": "function"
    },
    {
      "inputs": [
        {
          "internalType": "uint256",
          "name": "",
          "type": "uint256"
        }
      ],
      "name": "invoices",
      "outputs": [
        {
          "internalType": "uint256",
          "name": "invoiceId",
          "type": "uint256"
        },
        {
          "internalType": "address",
          "name": "supplier",
          "type": "address"
        },
        {
          "internalType": "address",
          "name": "buyer",
          "type": "address"
        },
        {
          "internalType": "uint256",
          "name": "amount",
          "type": "uint256"
        },
        {
          "internalType": "bool",
          "name": "approved",
          "type": "bool"
        },
        {
          "internalType": "bool",
          "name": "paid",
          "type": "bool"
        },
        {
          "internalType": "uint256",
          "name": "approvalTimestamp",
          "type": "uint256"
        },
        {
          "internalType": "uint256",
          "name": "paymentTimestamp",
          "type": "uint256"
        }
      ],
      "stateMutability": "view",
      "type": "function"
    },
    {
      "inputs": [
        {
          "internalType": "uint256",
          "name": "_invoiceId",
          "type": "uint256"
        }
      ],
      "name": "payInvoice",
      "outputs": [],
      "stateMutability": "payable",
      "type": "function"
    }
  ],
  "bytecode": "0x60806040526000805534801561001457600080fd5b50611426806100246000396000f3fe60806040526004361061007b5760003560e01c8063a57b381c1161004e578063a57b381c14610157578063ac60a6cd14610182578063b09585321461019e578063b32413b7146101c75761007b565b80633a23cc0a146100805780634e6d1405146100bd578063570bdad6146101015780637d6a59ed1461012c575b600080fd5b34801561008c57600080fd5b506100a760048036038101906100a29190610c00565b6101f0565b6040516100b49190610d3a565b60405180910390f35b3480156100c957600080fd5b506100e460048036038101906100df9190610c00565b610328565b6040516100f8989796959493929190610d83565b60405180910390f35b34801561010d57600080fd5b506101166103ca565b6040516101239190610f53565b60405180910390f35b34801561013857600080fd5b506101416105a3565b60405161014e9190610f75565b60405180910390f35b34801561016357600080fd5b5061016c6105ac565b6040516101799190610f75565b60405180910390f35b61019c60048036038101906101979190610c00565b6105b2565b005b3480156101aa57600080fd5b506101c560048036038101906101c09190610fbc565b6107b8565b005b3480156101d357600080fd5b506101ee60048036038101906101e99190610c00565b6109b8565b005b6101f8610b50565b6001600083815260200190815260200160002060405180610100016040529081600082015481526020016001820160009054906101000a900473ffffffffffffffffffffffffffffffffffffffff1673ffffffffffffffffffffffffffffffffffffffff1673ffffffffffffffffffffffffffffffffffffffff1681526020016002820160009054906101000a900473ffffffffffffffffffffffffffffffffffffffff1673ffffffffffffffffffffffffffffffffffffffff1673ffffffffffffffffffffffffffffffffffffffff168152602001600382015481526020016004820160009054906101000a900460ff161515151581526020016004820160019054906101000a900460ff16151515158152602001600582015481526020016006820154815250509050919050565b60016020528060005260406000206000915090508060000154908060010160009054906101000a900473ffffffffffffffffffffffffffffffffffffffff16908060020160009054906101000a900473ffffffffffffffffffffffffffffffffffffffff16908060030154908060040160009054906101000a900460ff16908060040160019054906101000a900460ff16908060050154908060060154905088565b60606000805467ffffffffffffffff8111156103e9576103e8610ffc565b5b60405190808252806020026020018201604052801561042257816020015b61040f610b50565b8152602001906001900390816104075790505b5090506000600190505b600054811161059b576001600082815260200190815260200160002060405180610100016040529081600082015481526020016001820160009054906101000a900473ffffffffffffffffffffffffffffffffffffffff1673ffffffffffffffffffffffffffffffffffffffff1673ffffffffffffffffffffffffffffffffffffffff1681526020016002820160009054906101000a900473ffffffffffffffffffffffffffffffffffffffff1673ffffffffffffffffffffffffffffffffffffffff1673ffffffffffffffffffffffffffffffffffffffff168152602001600382015481526020016004820160009054906101000a900460ff161515151581526020016004820160019054906101000a900460ff16151515158152602001600582015481526020016006820154815250508260018361056c919061105a565b8151811061057d5761057c61108e565b5b60200260200101819052508080610593906110bd565b91505061042c565b508091505090565b60008054905090565b60005481565b6001600082815260200190815260200160002060020160009054906101000a900473ffffffffffffffffffffffffffffffffffffffff1673ffffffffffffffffffffffffffffffffffffffff163373ffffffffffffffffffffffffffffffffffffffff1614610656576040517f08c379a000000000000000000000000000000000000000000000000000000000815260040161064d90611188565b60405180910390fd5b6001600082815260200190815260200160002060040160009054906101000a900460ff166106b9576040517f08c379a00000000000000000000000000000000000000000000000000000000081526004016106b09061121a565b60405180910390fd5b6001600082815260200190815260200160002060040160019054906101000a900460ff161561071d576040517f08c379a0000000000000000000000000000000000000000000000000000000008152600401610714906112ac565b60405180910390fd5b600180600083815260200190815260200160002060040160016101000a81548160ff0219169083151502179055504260016000838152602001908152602001600020600601819055503373ffffffffffffffffffffffffffffffffffffffff16817fa6abfda59e12fa300d17e1aa76bd3233eaf23ee4feb4b02b6516ad1d60be8400346040516107ad9190610f75565b60405180910390a350565b6000808154809291906107ca906110bd565b919050555060405180610100016040528060005481526020013373ffffffffffffffffffffffffffffffffffffffff1681526020018373ffffffffffffffffffffffffffffffffffffffff16815260200182815260200160001515815260200160001515815260200160008152602001600081525060016000805481526020019081526020016000206000820151816000015560208201518160010160006101000a81548173ffffffffffffffffffffffffffffffffffffffff021916908373ffffffffffffffffffffffffffffffffffffffff16021790555060408201518160020160006101000a81548173ffffffffffffffffffffffffffffffffffffffff021916908373ffffffffffffffffffffffffffffffffffffffff1602179055506060820151816003015560808201518160040160006101000a81548160ff02191690831515021790555060a08201518160040160016101000a81548160ff02191690831515021790555060c0820151816005015560e082015181600601559050508173ffffffffffffffffffffffffffffffffffffffff163373ffffffffffffffffffffffffffffffffffffffff166000547f88721abb1d35cff296c5d462601d6bdfed57e9493f8c361d2bcc24241a2ebfec846040516109ac9190610f75565b60405180910390a45050565b6001600082815260200190815260200160002060020160009054906101000a900473ffffffffffffffffffffffffffffffffffffffff1673ffffffffffffffffffffffffffffffffffffffff163373ffffffffffffffffffffffffffffffffffffffff1614610a5c576040517f08c379a0000000000000000000000000000000000000000000000000000000008152600401610a539061133e565b60405180910390fd5b6001600082815260200190815260200160002060040160009054906101000a900460ff1615610ac0576040517f08c379a0000000000000000000000000000000000000000000000000000000008152600401610ab7906113d0565b60405180910390fd5b600180600083815260200190815260200160002060040160006101000a81548160ff0219169083151502179055504260016000838152602001908152602001600020600501819055503373ffffffffffffffffffffffffffffffffffffffff16817f2fc87ce78bc5c521de67a761a660a66e0731eae19ef9de3e05a46b25f0d4514760405160405180910390a350565b60405180610100016040528060008152602001600073ffffffffffffffffffffffffffffffffffffffff168152602001600073ffffffffffffffffffffffffffffffffffffffff1681526020016000815260200160001515815260200160001515815260200160008152602001600081525090565b600080fd5b6000819050919050565b610bdd81610bca565b8114610be857600080fd5b50565b600081359050610bfa81610bd4565b92915050565b600060208284031215610c1657610c15610bc5565b5b6000610c2484828501610beb565b91505092915050565b610c3681610bca565b82525050565b600073ffffffffffffffffffffffffffffffffffffffff82169050919050565b6000610c6782610c3c565b9050919050565b610c7781610c5c565b82525050565b60008115159050919050565b610c9281610c7d565b82525050565b61010082016000820151610caf6000850182610c2d565b506020820151610cc26020850182610c6e565b506040820151610cd56040850182610c6e565b506060820151610ce86060850182610c2d565b506080820151610cfb6080850182610c89565b5060a0820151610d0e60a0850182610c89565b5060c0820151610d2160c0850182610c2d565b5060e0820151610d3460e0850182610c2d565b50505050565b600061010082019050610d506000830184610c98565b92915050565b610d5f81610bca565b82525050565b610d6e81610c5c565b82525050565b610d7d81610c7d565b82525050565b600061010082019050610d99600083018b610d56565b610da6602083018a610d65565b610db36040830189610d65565b610dc06060830188610d56565b610dcd6080830187610d74565b610dda60a0830186610d74565b610de760c0830185610d56565b610df460e0830184610d56565b9998505050505050505050565b600081519050919050565b600082825260208201905092915050565b6000819050602082019050919050565b61010082016000820151610e446000850182610c2d565b506020820151610e576020850182610c6e565b506040820151610e6a6040850182610c6e565b506060820151610e7d6060850182610c2d565b506080820151610e906080850182610c89565b5060a0820151610ea360a0850182610c89565b5060c0820151610eb660c0850182610c2d565b5060e0820151610ec960e0850182610c2d565b50505050565b6000610edb8383610e2d565b6101008301905092915050565b6000602082019050919050565b6000610f0082610e01565b610f0a8185610e0c565b9350610f1583610e1d565b8060005b83811015610f46578151610f2d8882610ecf565b9750610f3883610ee8565b925050600181019050610f19565b5085935050505092915050565b60006020820190508181036000830152610f6d8184610ef5565b905092915050565b6000602082019050610f8a6000830184610d56565b92915050565b610f9981610c5c565b8114610fa457600080fd5b50565b600081359050610fb681610f90565b92915050565b60008060408385031215610fd357610fd2610bc5565b5b6000610fe185828601610fa7565b9250506020610ff285828601610beb565b9150509250929050565b7f4e487b7100000000000000000000000000000000000000000000000000000000600052604160045260246000fd5b7f4e487b7100000000000000000000000000000000000000000000000000000000600052601160045260246000fd5b600061106582610bca565b915061107083610bca565b92508282039050818111156110885761108761102b565b5b92915050565b7f4e487b7100000000000000000000000000000000000000000000000000000000600052603260045260246000fd5b60006110c882610bca565b91507fffffffffffffffffffffffffffffffffffffffffffffffffffffffffffffffff82036110fa576110f961102b565b5b600182019050919050565b600082825260208201905092915050565b7f4f6e6c79207468652064657369676e617465642062757965722063616e20706160008201527f79207468697320696e766f6963652e0000000000000000000000000000000000602082015250565b6000611172602f83611105565b915061117d82611116565b604082019050919050565b600060208201905081810360008301526111a181611165565b9050919050565b7f496e766f696365206d75737420626520617070726f766564206265666f72652060008201527f7061796d656e742e000000000000000000000000000000000000000000000000602082015250565b6000611204602883611105565b915061120f826111a8565b604082019050919050565b60006020820190508181036000830152611233816111f7565b9050919050565b7f5468697320696e766f6963652068617320616c7265616479206265656e20706160008201527f69642e0000000000000000000000000000000000000000000000000000000000602082015250565b6000611296602383611105565b91506112a18261123a565b604082019050919050565b600060208201905081810360008301526112c581611289565b9050919050565b7f4f6e6c79207468652064657369676e617465642062757965722063616e20617060008201527f70726f7665207468697320696e766f6963652e00000000000000000000000000602082015250565b6000611328603383611105565b9150611333826112cc565b604082019050919050565b600060208201905081810360008301526113578161131b565b9050919050565b7f5468697320696e766f6963652068617320616c7265616479206265656e20617060008201527f70726f7665642e00000000000000000000000000000000000000000000000000602082015250565b60006113ba602783611105565b91506113c58261135e565b604082019050919050565b600060208201905081810360008301526113e9816113ad565b905091905056fea26469706673582212208228a26fa5803f1ae3bf7edee58b40393d8796da221e359ff7e103599fc7a93664736f6c63430008180033",
  "linkReferences": {},
  "deployedLinkReferences": {}
}